{
  "contractName": "SolRsaVerify",
  "abi": [
    {
      "constant": true,
      "inputs": [
        {
          "internalType": "bytes32",
          "name": "_sha256",
          "type": "bytes32"
        },
        {
          "internalType": "bytes",
          "name": "_s",
          "type": "bytes"
        },
        {
          "internalType": "bytes",
          "name": "_e",
          "type": "bytes"
        },
        {
          "internalType": "bytes",
          "name": "_m",
          "type": "bytes"
        }
      ],
      "name": "pkcs1Sha256Verify",
      "outputs": [
        {
          "internalType": "uint256",
          "name": "",
          "type": "uint256"
        }
      ],
      "payable": false,
      "stateMutability": "view",
      "type": "function"
    },
    {
      "constant": true,
      "inputs": [
        {
          "internalType": "bytes",
          "name": "_data",
          "type": "bytes"
        },
        {
          "internalType": "bytes",
          "name": "_s",
          "type": "bytes"
        },
        {
          "internalType": "bytes",
          "name": "_e",
          "type": "bytes"
        },
        {
          "internalType": "bytes",
          "name": "_m",
          "type": "bytes"
        }
      ],
      "name": "pkcs1Sha256VerifyRaw",
      "outputs": [
        {
          "internalType": "uint256",
          "name": "",
          "type": "uint256"
        }
      ],
      "payable": false,
      "stateMutability": "view",
      "type": "function"
    }
  ],
  "bytecode": "0x610ad1610026600b82828239805160001a60731461001957fe5b30600052607381538281f3fe73000000000000000000000000000000000000000030146080604052600436106100405760003560e01c80632ae0783d14610045578063a1a8858f146102d9575b600080fd5b6102c36004803603608081101561005b57600080fd5b810190808035906020019064010000000081111561007857600080fd5b82018360208201111561008a57600080fd5b803590602001918460018302840111640100000000831117156100ac57600080fd5b91908080601f016020809104026020016040519081016040528093929190818152602001838380828437600081840152601f19601f8201169050808301925050505050505091929192908035906020019064010000000081111561010f57600080fd5b82018360208201111561012157600080fd5b8035906020019184600183028401116401000000008311171561014357600080fd5b91908080601f016020809104026020016040519081016040528093929190818152602001838380828437600081840152601f19601f820116905080830192505050505050509192919290803590602001906401000000008111156101a657600080fd5b8201836020820111156101b857600080fd5b803590602001918460018302840111640100000000831117156101da57600080fd5b91908080601f016020809104026020016040519081016040528093929190818152602001838380828437600081840152601f19601f8201169050808301925050505050505091929192908035906020019064010000000081111561023d57600080fd5b82018360208201111561024f57600080fd5b8035906020019184600183028401116401000000008311171561027157600080fd5b91908080601f016020809104026020016040519081016040528093929190818152602001838380828437600081840152601f19601f8201169050808301925050505050505091929192905050506104e0565b6040518082815260200191505060405180910390f35b6104ca600480360360808110156102ef57600080fd5b81019080803590602001909291908035906020019064010000000081111561031657600080fd5b82018360208201111561032857600080fd5b8035906020019184600183028401116401000000008311171561034a57600080fd5b91908080601f016020809104026020016040519081016040528093929190818152602001838380828437600081840152601f19601f820116905080830192505050505050509192919290803590602001906401000000008111156103ad57600080fd5b8201836020820111156103bf57600080fd5b803590602001918460018302840111640100000000831117156103e157600080fd5b91908080601f016020809104026020016040519081016040528093929190818152602001838380828437600081840152601f19601f8201169050808301925050505050505091929192908035906020019064010000000081111561044457600080fd5b82018360208201111561045657600080fd5b8035906020019184600183028401116401000000008311171561047857600080fd5b91908080601f016020809104026020016040519081016040528093929190818152602001838380828437600081840152601f19601f820116905080830192505050505050509192919290505050610595565b6040518082815260200191505060405180910390f35b600061058b6002866040518082805190602001908083835b6020831061051b57805182526020820191506020810190506020830392506104f8565b6001836020036101000a038019825116818451168082178552505050505050905001915050602060405180830381855afa15801561055d573d6000803e3d6000fd5b5050506040513d602081101561057257600080fd5b8101908080519060200190929190505050858585610595565b9050949350505050565b600061059f610a79565b604051806102600160405280603060ff168152602001603160ff168152602001603060ff168152602001600d60ff168152602001600660ff168152602001600960ff168152602001606060ff168152602001608660ff168152602001604860ff168152602001600160ff168152602001606560ff168152602001600360ff168152602001600460ff168152602001600260ff168152602001600160ff168152602001600560ff168152602001600060ff168152602001600460ff168152602001602060ff168152509050600b602060ff16601301018351101561068157600080fd5b6000606061069087878761095c565b90506000815190506000865190506060816040519080825280601f01601f1916602001820160405280156106d35781602001600182028038833980820191505090505b5090508160208201846020870160056107d05a03fa506000602060136003850303039050600060f81b8260008151811061070957fe5b602001015160f81c60f81b7effffffffffffffffffffffffffffffffffffffffffffffffffffffffffffff1916141580610761575060018260018151811061074d57fe5b602001015160f81c60f81b60f81c60ff1614155b15610776576001975050505050505050610954565b600295505b806002018610156107e65760ff60f81b82878151811061079757fe5b602001015160f81c60f81b7effffffffffffffffffffffffffffffffffffffffffffffffffffffffffffff1916146107d9576002975050505050505050610954565b858060010196505061077b565b600060f81b8282600201815181106107fa57fe5b602001015160f81c60f81b7effffffffffffffffffffffffffffffffffffffffffffffffffffffffffffff19161461083c576003975050505050505050610954565b600095505b60138610156108a25786866013811061085657fe5b602002015160ff16828783600301018151811061086f57fe5b602001015160f81c60f81b60f81c60ff1614610895576004975050505050505050610954565b8580600101965050610841565b600095505b602060ff16861015610948578b86602081106108bf57fe5b1a60f81b7effffffffffffffffffffffffffffffffffffffffffffffffffffffffffffff191682876013846003010101815181106108f957fe5b602001015160f81c60f81b7effffffffffffffffffffffffffffffffffffffffffffffffffffffffffffff19161461093b576005975050505050505050610954565b85806001019650506108a7565b60009750505050505050505b949350505050565b60606000825184518651606001010190506000855190506000855190506000855190506000806000806060886040519080825280601f01601f1916602001820160405280156109ba5781602001600182028038833980820191505090505b50905060208d01945060208c01935060208b0192508760208201528660408201528560608201526020810191506109f660608301868f51610a30565b610a088d516060840101858e51610a30565b610a1d8c518e51606085010101848d51610a30565b8099505050505050505050509392505050565b5b60208110610a545781518352602083019250602082019150602081039050610a31565b60006001826020036101000a0390508019835116818551168181178652505050505050565b60405180610260016040528060139060208202803883398082019150509050509056fea265627a7a72315820599999aee48465f51c1ee051eb11b85f806c4988e1e7775708e2e501fa288d5764736f6c63430005100032",
  "source": "// SPDX-License-Identifier: MIT\r\npragma solidity >=0.5.0 <=0.8.17;\r\n\r\n/*\r\n    Copyright 2016, Adrià Massanet\r\n    This program is free software: you can redistribute it and/or modify\r\n    it under the terms of the GNU General Public License as published by\r\n    the Free Software Foundation, either version 3 of the License, or\r\n    (at your option) any later version.\r\n    This program is distributed in the hope that it will be useful,\r\n    but WITHOUT ANY WARRANTY; without even the implied warranty of\r\n    MERCHANTABILITY or FITNESS FOR A PARTICULAR PURPOSE.  See the\r\n    GNU General Public License for more details.\r\n    You should have received a copy of the GNU General Public License\r\n    along with this program.  If not, see <http://www.gnu.org/licenses/>.\r\n    \r\n    Checked results with FIPS test vectors\r\n    https://csrc.nist.gov/CSRC/media/Projects/Cryptographic-Algorithm-Validation-Program/documents/dss/186-2rsatestvectors.zip\r\n    file SigVer15_186-3.rsp\r\n    \r\n */\r\n\r\nlibrary SolRsaVerify {\r\n\r\n    function memcpy(uint _dest, uint _src, uint _len) pure internal {\r\n        // Copy word-length chunks while possible\r\n        for ( ;_len >= 32; _len -= 32) {\r\n            assembly {\r\n                mstore(_dest, mload(_src))\r\n            }\r\n            _dest += 32;\r\n            _src += 32;\r\n        }\r\n\r\n        // Copy remaining bytes\r\n        uint mask = 256 ** (32 - _len) - 1;\r\n        assembly {\r\n            let srcpart := and(mload(_src), not(mask))\r\n            let destpart := and(mload(_dest), mask)\r\n            mstore(_dest, or(destpart, srcpart))\r\n        }\r\n    }\r\n\r\n    \r\n    function join(\r\n\tbytes memory _s, bytes memory _e, bytes memory _m\r\n    ) pure internal returns (bytes memory) {\r\n        uint inputLen = 0x60+_s.length+_e.length+_m.length;\r\n        \r\n        uint slen = _s.length;\r\n        uint elen = _e.length;\r\n        uint mlen = _m.length;\r\n        uint sptr;\r\n        uint eptr;\r\n        uint mptr;\r\n        uint inputPtr;\r\n        \r\n        bytes memory input = new bytes(inputLen);\r\n        assembly {\r\n            sptr := add(_s,0x20)\r\n            eptr := add(_e,0x20)\r\n            mptr := add(_m,0x20)\r\n            mstore(add(input,0x20),slen)\r\n            mstore(add(input,0x40),elen)\r\n            mstore(add(input,0x60),mlen)\r\n            inputPtr := add(input,0x20)\r\n        }\r\n        memcpy(inputPtr+0x60,sptr,_s.length);        \r\n        memcpy(inputPtr+0x60+_s.length,eptr,_e.length);        \r\n        memcpy(inputPtr+0x60+_s.length+_e.length,mptr,_m.length);\r\n\r\n        return input;\r\n    }\r\n    \r\n    /** @dev Verifies a PKCSv1.5 SHA256 signature\r\n      * @param _sha256 is the sha256 of the data\r\n      * @param _s is the signature\r\n      * @param _e is the exponent\r\n      * @param _m is the modulus\r\n      * @return 0 if success, >0 otherwise\r\n    */    \r\n    function pkcs1Sha256Verify(\r\n        bytes32 _sha256,\r\n        bytes memory _s, bytes memory _e, bytes memory _m\r\n    ) public view returns (uint) {\r\n        \r\n        uint8[19] memory sha256Prefix = [\r\n            0x30, 0x31, 0x30, 0x0d, 0x06, 0x09, 0x60, 0x86, 0x48, 0x01, 0x65, 0x03, 0x04, 0x02, 0x01, 0x05, 0x00, 0x04, 0x20\r\n        ];\r\n        \r\n      \trequire(_m.length >= sha256Prefix.length+_sha256.length+11);\r\n\r\n        uint i;\r\n\r\n        /// decipher\r\n        bytes memory input = join(_s,_e,_m);\r\n        uint inputlen = input.length;\r\n\r\n        uint decipherlen = _m.length;\r\n        bytes memory decipher = new bytes(decipherlen);\r\n        assembly {\r\n            pop(staticcall(sub(gas(), 2000), 5, add(input,0x20), inputlen, add(decipher,0x20), decipherlen))\r\n\t}\r\n        \r\n        /// 0x00 || 0x01 || PS || 0x00 || DigestInfo\r\n        /// PS is padding filled with 0xff\r\n        //  DigestInfo ::= SEQUENCE {\r\n        //     digestAlgorithm AlgorithmIdentifier,\r\n        //     digest OCTET STRING\r\n        //  }\r\n        \r\n        uint paddingLen = decipherlen - 3 - sha256Prefix.length - 32;\r\n        \r\n        if (decipher[0] != 0 || uint8(decipher[1]) != 1) {\r\n            return 1;\r\n        }\r\n        for (i = 2;i<2+paddingLen;i++) {\r\n            if (decipher[i] != 0xff) {\r\n                return 2;\r\n            }\r\n        }\r\n        if (decipher[2+paddingLen] != 0) {\r\n            return 3;\r\n        }\r\n        for (i = 0;i<sha256Prefix.length;i++) {\r\n            if (uint8(decipher[3+paddingLen+i])!=sha256Prefix[i]) {\r\n                return 4;\r\n            }\r\n        }\r\n        for (i = 0;i<_sha256.length;i++) {\r\n            if (decipher[3+paddingLen+sha256Prefix.length+i]!=_sha256[i]) {\r\n                return 5;\r\n            }\r\n        }\r\n\r\n        return 0;\r\n    }\r\n\r\n    /** @dev Verifies a PKCSv1.5 SHA256 signature\r\n      * @param _data to verify\r\n      * @param _s is the signature\r\n      * @param _e is the exponent\r\n      * @param _m is the modulus\r\n      * @return 0 if success, >0 otherwise\r\n    */    \r\n    function pkcs1Sha256VerifyRaw(\r\n        bytes memory _data, \r\n        bytes memory _s, bytes memory _e, bytes memory _m\r\n    ) public view returns (uint) {\r\n        return pkcs1Sha256Verify(sha256(_data),_s,_e,_m);\r\n    }\r\n\r\n}",
  "sourcePath": "D:\\Leassons and Assignments\\Web3 practice\\ipfs_practice\\starter_kit\\src\\contracts\\SolRsaVerify.sol",
  "compiler": {
    "name": "solc",
    "version": "0.5.16+commit.9c3226ce.Emscripten.clang"
  },
  "schemaVersion": "3.4.10",
  "updatedAt": "2022-12-24T03:28:32.689Z",
  "devdoc": {
    "methods": {
      "pkcs1Sha256Verify(bytes32,bytes,bytes,bytes)": {
        "details": "Verifies a PKCSv1.5 SHA256 signature",
        "params": {
          "_e": "is the exponent",
          "_m": "is the modulus",
          "_s": "is the signature",
          "_sha256": "is the sha256 of the data"
        },
        "return": "0 if success, >0 otherwise"
      },
      "pkcs1Sha256VerifyRaw(bytes,bytes,bytes,bytes)": {
        "details": "Verifies a PKCSv1.5 SHA256 signature",
        "params": {
          "_data": "to verify",
          "_e": "is the exponent",
          "_m": "is the modulus",
          "_s": "is the signature"
        },
        "return": "0 if success, >0 otherwise"
      }
    }
  },
  "userdoc": {
    "methods": {}
  }
}